:100000000EC028C028C026C025C024C023C022C0DE
:1000100021C020C01FC01EC01DC0C7C0E2C0112427
:100020001FBECFE5D1E0DEBFCDBF10E0A0E6B0E05F
:10003000E6E0F3E002C005900D92A036B107D9F7D3
:1000400010E0A0E6B0E001C01D92AB38B107E1F7C7
:1000500041D057C1D5CF1F920F920FB60F921124E6
:100060002F938F939F9386B390E0887190709595AE
:1000700087959595879595958795282F80938700E7
:1000800090E0827090709595879590916000917046
:10009000892780938A00882351F480918800909169
:1000A00089000196909389008093880009C080910F
:1000B000880090918900019790938900809388002F
:1000C000209360009F918F912F910F900FBE0F9002
:1000D0001F9018951092890010928800AB9A8BB7E8
:1000E00080628BBF7894BB98BC98C39AC49A8EE305
:1000F0001AD0C8E8D0E08E010F5F1F4F4DD0882383
:1001000081F036D0813019F08A3059F405C0109250
:1001100089001092880005C088811AD0F80180817A
:1001200017D00000EBCF1092630010926400109281
:100130006100109262008093660087B3856087BB80
:10014000C29AC09AB89888EA8DB980EF8EB908959E
:10015000209162002F5F2F70909161002917E1F3C9
:10016000E7E6F0E0E20FF11D80832093620008953E
:1001700090916400809163009817D1F3809163009F
:100180008F5F8F708093630080916300E7E7F0E0FA
:10019000E80FF11D80810895209164009091630023
:1001A00081E0291709F480E008951F920F920FB69D
:1001B0000F9211248F9310926500B898B29B02C0E1
:1001C000B09BFCCFB09903C088EF8DB902C088EA1C
:1001D0008DB980EF8EB98F910F900FBE0F901F9049
:1001E00018951F920F920FB60F9211248F939F9321
:1001F000EF93FF9380916500823009F455C08330FE
:1002000030F4882369F0813009F072C02DC0843049
:1002100009F452C0843000F1853009F069C053C040
:100220008FB1882331F09FB1969580916600981721
:1002300071F4789B04C081E08093650003C084E082
:10024000809365001FB8B89A8EE78EB951C088EACE
:100250008DB980E78EB94CC08FB1882329F088EA28
:100260008DB980E78EB944C09091620080916100A1
:100270009817A9F0809161008F5F8F708093610063
:1002800080916100E7E6F0E0E80FF11D80818FB911
:1002900082E080936500B89A80E78EB929C088EA29
:1002A0008DB980E78EB924C083E080936500B8984B
:1002B0001FB88EE78EB91CC085E080936500B898A2
:1002C00080E78EB915C0809164008F5F8F70809336
:1002D0006400909164008FB1E7E7F0E0E90FF11D51
:1002E000808384E0809365001FB8B89A8EE78EB94A
:1002F000FF91EF919F918F910F900FBE0F901F90E4
:060300001895F894FFCFF0
:00000001FF
