:020000040000FA
:04000000DBEF00F042
:08000800056ED8CF06F0E0CF31
:1000100007F00001E9CF0DF0EACF08F0E1CF09F0D9
:10002000E2CF0AF0D9CF0BF0DACF0CF0F3CF14F017
:10003000F4CF15F0FACF16F000C00FF001C010F0A9
:1000400002C011F003C012F004C013F0F2A62CEFAE
:1000500000F0F2B055EF00F09DA632EF00F09EB632
:1000600085EF00F00FC000F010C001F011C002F0E9
:1000700012C003F013C004F00E8E0DC0E9FF08C0DB
:10008000EAFF09C0E1FF0AC0E2FF0BC0D9FF0CC0C4
:10009000DAFF14C0F3FF15C0F4FF16C0FAFF0550D5
:1000A00007C0E0FF06C0D8FF1000929689769284C0
:1000B00080A40CD0938881A809D0010E1826D8B04E
:1000C000192AD8B41A2AD8B41B2A0ED0928480B424
:1000D0000BD0938881A808D0FF0E1826D8A0192627
:1000E000D8A01A26D8A01B2681CF27F0F29032EF95
:1000F00000F0C95027C0C9FFC6889E96C7B0FED77A
:10010000016AC6B8012AC3EF00F0232A92988978C1
:10011000C7BA03D0256AC9B0258E2550252A216E7D
:1001200021507F082AE3232C07D0C7A0FED7C9CFD0
:1001300022F09296897602D0FF0E226E222C04D0F5
:100140001B6A1A6A196A186A2250020802E1929020
:1001500089702250100802E118C024F022501108C2
:1001600002E119C024F02250120802E11AC024F062
:100170002250130802E11BC024F021507F0804E242
:1001800024C027F0B6D7236A9E9632EF00F0EA6AC1
:10019000260EE96EEF500EE00F0E016E006A002E83
:1001A000FED7012EFBD78F0E006E002EFED700006B
:1001B000EF2EF2D7000CF86AD09E0D8EEA6AE96A3B
:1001C00093829380360EC86EC66EC150C00B0F0965
:1001D000C16E070EB46E6A0E186EAA0E196EFF0E6F
:1001E0001A6E1B6ED00E1C6E4E0E1D6EFF0E1E6E16
:1001F0001F6E030E256EC00EF212F2869D86F298D7
:100200001B6A1A6A196A186A236A929092929284F7
:1002100092969388929689969298899892908980DE
:10022000FA0E266EB4DF92908990FA0E266EAFDF3A
:1002300092908980FA0E266EAADF9290899092920F
:0E02400089721E0E266EA3DF236AF9D7030013
:020000040030CA
:0E00000020023E1E000381000FC00FE00F40E3
:00000001FF
;PIC18F2550
