:020000040000FA
:0400000090EF00F08D
:08000800056ED8CF06F0E0CF31
:1000100007F00001E9CF0DF0EACF08F0E1CF09F0D9
:10002000E2CF0AF0D9CF0BF0DACF0CF0F3CF14F017
:10003000F4CF15F0FACF16F000C00FF001C010F0A9
:1000400002C011F003C012F004C013F0F2A62CEFAE
:1000500000F0F2B06BEF00F00FC000F010C001F044
:1000600011C002F012C003F013C004F00E8E0DC0D8
:10007000E9FF08C0EAFF09C0E1FF0AC0E2FF0BC0C8
:10008000D9FF0CC0DAFF14C0F3FF15C0F4FF16C08F
:10009000FAFF055007C0E0FF06C0D8FF1000C69E5B
:1000A0009E9627C0C9FF020EC6BE05D09EA6FED7EB
:1000B000000EC5BC010E016E000CC586C5B6FED78C
:1000C00000B0C59A00A0C58AC588C5B8FED7C9CFFB
:1000D00001F086EF00F0938881A80DD0C580C5B0EF
:1000E000FED7360E276EDBDF020E276ED8DFC58403
:1000F000C5B4FED710D0938A81AA0DD0C580C5B0F3
:10010000FED7370E276ECBDF006AD7D701C018F0B5
:10011000C584C5B4FED781CF26F0F2902CEF00F055
:10012000F86AD09E0D8EEA6AE96A938293801D0E6A
:10013000C86E280EC66EC79EC79CC150C00B0F0963
:10014000C16E070EB46EC00EF212F286256A246AE2
:0E015000236A226A929092849388FFD703005C
:020000040030CA
:0E00000020023E1E000381000FC00FE00F40E3
:00000001FF
;PIC18F2550
